{
    "_format": "hh-sol-artifact-1",
    "contractName": "CoffeePortal",
    "sourceName": "contracts/CoffeePortal.sol",
    "abi": [
        {
            "inputs": [],
            "stateMutability": "payable",
            "type": "constructor"
        },
        {
            "anonymous": false,
            "inputs": [
                {
                    "indexed": true,
                    "internalType": "address",
                    "name": "from",
                    "type": "address"
                },
                {
                    "indexed": false,
                    "internalType": "uint256",
                    "name": "timestamp",
                    "type": "uint256"
                },
                {
                    "indexed": false,
                    "internalType": "string",
                    "name": "message",
                    "type": "string"
                },
                {
                    "indexed": false,
                    "internalType": "string",
                    "name": "name",
                    "type": "string"
                }
            ],
            "name": "NewCoffee",
            "type": "event"
        },
        {
            "inputs": [
                {
                    "internalType": "string",
                    "name": "_message",
                    "type": "string"
                },
                {
                    "internalType": "string",
                    "name": "_name",
                    "type": "string"
                },
                {
                    "internalType": "uint256",
                    "name": "_payAmount",
                    "type": "uint256"
                }
            ],
            "name": "buyCoffee",
            "outputs": [],
            "stateMutability": "payable",
            "type": "function"
        },
        {
            "inputs": [],
            "name": "getAllCoffee",
            "outputs": [
                {
                    "components": [
                        {
                            "internalType": "address",
                            "name": "giver",
                            "type": "address"
                        },
                        {
                            "internalType": "string",
                            "name": "message",
                            "type": "string"
                        },
                        {
                            "internalType": "string",
                            "name": "name",
                            "type": "string"
                        },
                        {
                            "internalType": "uint256",
                            "name": "timestamp",
                            "type": "uint256"
                        }
                    ],
                    "internalType": "struct CoffeePortal.Coffee[]",
                    "name": "",
                    "type": "tuple[]"
                }
            ],
            "stateMutability": "view",
            "type": "function"
        },
        {
            "inputs": [],
            "name": "getTotalCoffee",
            "outputs": [
                {
                    "internalType": "uint256",
                    "name": "",
                    "type": "uint256"
                }
            ],
            "stateMutability": "view",
            "type": "function"
        },
        {
            "inputs": [],
            "name": "owner",
            "outputs": [
                {
                    "internalType": "address payable",
                    "name": "",
                    "type": "address"
                }
            ],
            "stateMutability": "view",
            "type": "function"
        }
    ],
    "bytecode": "0x60806040526200004f6040518060400160405280601981526020017f436f666665506f7274616c20536d617274436f6e7472616374000000000000008152506200009660201b620005f21760201c565b33600160006101000a81548173ffffffffffffffffffffffffffffffffffffffff021916908373ffffffffffffffffffffffffffffffffffffffff1602179055506200022a565b6200013681604051602401620000ad919062000206565b6040516020818303038152906040527f41304fac000000000000000000000000000000000000000000000000000000007bffffffffffffffffffffffffffffffffffffffffffffffffffffffff19166020820180517bffffffffffffffffffffffffffffffffffffffffffffffffffffffff83818316178352505050506200013960201b60201c565b50565b60008151905060006a636f6e736f6c652e6c6f679050602083016000808483855afa5050505050565b600081519050919050565b600082825260208201905092915050565b60005b838110156200019e57808201518184015260208101905062000181565b83811115620001ae576000848401525b50505050565b6000601f19601f8301169050919050565b6000620001d28262000162565b620001de81856200016d565b9350620001f08185602086016200017e565b620001fb81620001b4565b840191505092915050565b60006020820190508181036000830152620002228184620001c5565b905092915050565b611090806200023a6000396000f3fe60806040526004361061003f5760003560e01c8063441315c5146100445780634839ee3f146100605780638da5cb5b1461008b578063d386beca146100b6575b600080fd5b61005e60048036038101906100599190610a1f565b6100e1565b005b34801561006c57600080fd5b5061007561039e565b6040516100829190610ab9565b60405180910390f35b34801561009757600080fd5b506100a06103e9565b6040516100ad9190610b15565b60405180910390f35b3480156100c257600080fd5b506100cb61040f565b6040516100d89190610d14565b60405180910390f35b600066038d7ea4c68000905080821115610130576040517f08c379a000000000000000000000000000000000000000000000000000000000815260040161012790610d93565b60405180910390fd5b60016000808282546101429190610de2565b925050819055506101886040518060400160405280601981526020017f257320686173206a7573742073656e74206120636f66666565000000000000008152503361068b565b600260405180608001604052803373ffffffffffffffffffffffffffffffffffffffff16815260200186815260200185815260200142815250908060018154018082558091505060019003906000526020600020906004020160009091909190915060008201518160000160006101000a81548173ffffffffffffffffffffffffffffffffffffffff021916908373ffffffffffffffffffffffffffffffffffffffff160217905550602082015181600101908051906020019061024d9291906107ec565b50604082015181600201908051906020019061026a9291906107ec565b506060820151816003015550506000600160009054906101000a900473ffffffffffffffffffffffffffffffffffffffff1673ffffffffffffffffffffffffffffffffffffffff16836040516102bf90610e69565b60006040518083038185875af1925050503d80600081146102fc576040519150601f19603f3d011682016040523d82523d6000602084013e610301565b606091505b5050905080610345576040517f08c379a000000000000000000000000000000000000000000000000000000000815260040161033c90610eca565b60405180910390fd5b3373ffffffffffffffffffffffffffffffffffffffff167f5d202edb9ac9aca913189e3c829f7fdbba23859e91379c70ecf7874fe39632a742878760405161038f93929190610f23565b60405180910390a25050505050565b60006103e16040518060400160405280602081526020017f5765206861766520256420746f74616c20636f66666565207265636569766564815250600054610727565b600054905090565b600160009054906101000a900473ffffffffffffffffffffffffffffffffffffffff1681565b60606002805480602002602001604051908101604052809291908181526020016000905b828210156105e957838290600052602060002090600402016040518060800160405290816000820160009054906101000a900473ffffffffffffffffffffffffffffffffffffffff1673ffffffffffffffffffffffffffffffffffffffff1673ffffffffffffffffffffffffffffffffffffffff1681526020016001820180546104bc90610f97565b80601f01602080910402602001604051908101604052809291908181526020018280546104e890610f97565b80156105355780601f1061050a57610100808354040283529160200191610535565b820191906000526020600020905b81548152906001019060200180831161051857829003601f168201915b5050505050815260200160028201805461054e90610f97565b80601f016020809104026020016040519081016040528092919081815260200182805461057a90610f97565b80156105c75780601f1061059c576101008083540402835291602001916105c7565b820191906000526020600020905b8154815290600101906020018083116105aa57829003601f168201915b5050505050815260200160038201548152505081526020019060010190610433565b50505050905090565b610688816040516024016106069190610fc9565b6040516020818303038152906040527f41304fac000000000000000000000000000000000000000000000000000000007bffffffffffffffffffffffffffffffffffffffffffffffffffffffff19166020820180517bffffffffffffffffffffffffffffffffffffffffffffffffffffffff83818316178352505050506107c3565b50565b61072382826040516024016106a1929190610ffa565b6040516020818303038152906040527f319af333000000000000000000000000000000000000000000000000000000007bffffffffffffffffffffffffffffffffffffffffffffffffffffffff19166020820180517bffffffffffffffffffffffffffffffffffffffffffffffffffffffff83818316178352505050506107c3565b5050565b6107bf828260405160240161073d92919061102a565b6040516020818303038152906040527fb60e72cc000000000000000000000000000000000000000000000000000000007bffffffffffffffffffffffffffffffffffffffffffffffffffffffff19166020820180517bffffffffffffffffffffffffffffffffffffffffffffffffffffffff83818316178352505050506107c3565b5050565b60008151905060006a636f6e736f6c652e6c6f679050602083016000808483855afa5050505050565b8280546107f890610f97565b90600052602060002090601f01602090048101928261081a5760008555610861565b82601f1061083357805160ff1916838001178555610861565b82800160010185558215610861579182015b82811115610860578251825591602001919060010190610845565b5b50905061086e9190610872565b5090565b5b8082111561088b576000816000905550600101610873565b5090565b6000604051905090565b600080fd5b600080fd5b600080fd5b600080fd5b6000601f19601f8301169050919050565b7f4e487b7100000000000000000000000000000000000000000000000000000000600052604160045260246000fd5b6108f6826108ad565b810181811067ffffffffffffffff82111715610915576109146108be565b5b80604052505050565b600061092861088f565b905061093482826108ed565b919050565b600067ffffffffffffffff821115610954576109536108be565b5b61095d826108ad565b9050602081019050919050565b82818337600083830152505050565b600061098c61098784610939565b61091e565b9050828152602081018484840111156109a8576109a76108a8565b5b6109b384828561096a565b509392505050565b600082601f8301126109d0576109cf6108a3565b5b81356109e0848260208601610979565b91505092915050565b6000819050919050565b6109fc816109e9565b8114610a0757600080fd5b50565b600081359050610a19816109f3565b92915050565b600080600060608486031215610a3857610a37610899565b5b600084013567ffffffffffffffff811115610a5657610a5561089e565b5b610a62868287016109bb565b935050602084013567ffffffffffffffff811115610a8357610a8261089e565b5b610a8f868287016109bb565b9250506040610aa086828701610a0a565b9150509250925092565b610ab3816109e9565b82525050565b6000602082019050610ace6000830184610aaa565b92915050565b600073ffffffffffffffffffffffffffffffffffffffff82169050919050565b6000610aff82610ad4565b9050919050565b610b0f81610af4565b82525050565b6000602082019050610b2a6000830184610b06565b92915050565b600081519050919050565b600082825260208201905092915050565b6000819050602082019050919050565b6000610b6782610ad4565b9050919050565b610b7781610b5c565b82525050565b600081519050919050565b600082825260208201905092915050565b60005b83811015610bb7578082015181840152602081019050610b9c565b83811115610bc6576000848401525b50505050565b6000610bd782610b7d565b610be18185610b88565b9350610bf1818560208601610b99565b610bfa816108ad565b840191505092915050565b610c0e816109e9565b82525050565b6000608083016000830151610c2c6000860182610b6e565b5060208301518482036020860152610c448282610bcc565b91505060408301518482036040860152610c5e8282610bcc565b9150506060830151610c736060860182610c05565b508091505092915050565b6000610c8a8383610c14565b905092915050565b6000602082019050919050565b6000610caa82610b30565b610cb48185610b3b565b935083602082028501610cc685610b4c565b8060005b85811015610d025784840389528151610ce38582610c7e565b9450610cee83610c92565b925060208a01995050600181019050610cca565b50829750879550505050505092915050565b60006020820190508181036000830152610d2e8184610c9f565b905092915050565b600082825260208201905092915050565b7f496e737566666963656e74204574686572732050726f76696465640000000000600082015250565b6000610d7d601b83610d36565b9150610d8882610d47565b602082019050919050565b60006020820190508181036000830152610dac81610d70565b9050919050565b7f4e487b7100000000000000000000000000000000000000000000000000000000600052601160045260246000fd5b6000610ded826109e9565b9150610df8836109e9565b9250827fffffffffffffffffffffffffffffffffffffffffffffffffffffffffffffffff03821115610e2d57610e2c610db3565b5b828201905092915050565b600081905092915050565b50565b6000610e53600083610e38565b9150610e5e82610e43565b600082019050919050565b6000610e7482610e46565b9150819050919050565b7f4661696c656420746f2053656e64204d6f6e6579000000000000000000000000600082015250565b6000610eb4601483610d36565b9150610ebf82610e7e565b602082019050919050565b60006020820190508181036000830152610ee381610ea7565b9050919050565b6000610ef582610b7d565b610eff8185610d36565b9350610f0f818560208601610b99565b610f18816108ad565b840191505092915050565b6000606082019050610f386000830186610aaa565b8181036020830152610f4a8185610eea565b90508181036040830152610f5e8184610eea565b9050949350505050565b7f4e487b7100000000000000000000000000000000000000000000000000000000600052602260045260246000fd5b60006002820490506001821680610faf57607f821691505b60208210811415610fc357610fc2610f68565b5b50919050565b60006020820190508181036000830152610fe38184610eea565b905092915050565b610ff481610b5c565b82525050565b600060408201905081810360008301526110148185610eea565b90506110236020830184610feb565b9392505050565b600060408201905081810360008301526110448185610eea565b90506110536020830184610aaa565b939250505056fea26469706673582212209a8dfcea335f5a98f4e22c07775903a5bcdfa0a551f657e6dd2e6117342d1e1664736f6c63430008090033",
    "linkReferences": {},
    "deployedLinkReferences": {}
}